{
  "_format": "hh-sol-artifact-1",
  "contractName": "MyEpicNFT",
  "sourceName": "contracts/MyEpicNFT.sol",
  "abi": [
    {
      "inputs": [],
      "stateMutability": "nonpayable",
      "type": "constructor"
    },
    {
      "anonymous": false,
      "inputs": [
        {
          "indexed": true,
          "internalType": "address",
          "name": "owner",
          "type": "address"
        },
        {
          "indexed": true,
          "internalType": "address",
          "name": "approved",
          "type": "address"
        },
        {
          "indexed": true,
          "internalType": "uint256",
          "name": "tokenId",
          "type": "uint256"
        }
      ],
      "name": "Approval",
      "type": "event"
    },
    {
      "anonymous": false,
      "inputs": [
        {
          "indexed": true,
          "internalType": "address",
          "name": "owner",
          "type": "address"
        },
        {
          "indexed": true,
          "internalType": "address",
          "name": "operator",
          "type": "address"
        },
        {
          "indexed": false,
          "internalType": "bool",
          "name": "approved",
          "type": "bool"
        }
      ],
      "name": "ApprovalForAll",
      "type": "event"
    },
    {
      "anonymous": false,
      "inputs": [
        {
          "indexed": false,
          "internalType": "address",
          "name": "sender",
          "type": "address"
        },
        {
          "indexed": false,
          "internalType": "uint256",
          "name": "tokenId",
          "type": "uint256"
        }
      ],
      "name": "NewEpicNFTMinted",
      "type": "event"
    },
    {
      "anonymous": false,
      "inputs": [
        {
          "indexed": true,
          "internalType": "address",
          "name": "from",
          "type": "address"
        },
        {
          "indexed": true,
          "internalType": "address",
          "name": "to",
          "type": "address"
        },
        {
          "indexed": true,
          "internalType": "uint256",
          "name": "tokenId",
          "type": "uint256"
        }
      ],
      "name": "Transfer",
      "type": "event"
    },
    {
      "inputs": [],
      "name": "TotalMintCount",
      "outputs": [
        {
          "internalType": "uint256",
          "name": "",
          "type": "uint256"
        }
      ],
      "stateMutability": "view",
      "type": "function"
    },
    {
      "inputs": [
        {
          "internalType": "address",
          "name": "to",
          "type": "address"
        },
        {
          "internalType": "uint256",
          "name": "tokenId",
          "type": "uint256"
        }
      ],
      "name": "approve",
      "outputs": [],
      "stateMutability": "nonpayable",
      "type": "function"
    },
    {
      "inputs": [
        {
          "internalType": "address",
          "name": "owner",
          "type": "address"
        }
      ],
      "name": "balanceOf",
      "outputs": [
        {
          "internalType": "uint256",
          "name": "",
          "type": "uint256"
        }
      ],
      "stateMutability": "view",
      "type": "function"
    },
    {
      "inputs": [
        {
          "internalType": "uint256",
          "name": "tokenId",
          "type": "uint256"
        }
      ],
      "name": "getApproved",
      "outputs": [
        {
          "internalType": "address",
          "name": "",
          "type": "address"
        }
      ],
      "stateMutability": "view",
      "type": "function"
    },
    {
      "inputs": [
        {
          "internalType": "address",
          "name": "owner",
          "type": "address"
        },
        {
          "internalType": "address",
          "name": "operator",
          "type": "address"
        }
      ],
      "name": "isApprovedForAll",
      "outputs": [
        {
          "internalType": "bool",
          "name": "",
          "type": "bool"
        }
      ],
      "stateMutability": "view",
      "type": "function"
    },
    {
      "inputs": [],
      "name": "makeAnEpicNFT",
      "outputs": [],
      "stateMutability": "nonpayable",
      "type": "function"
    },
    {
      "inputs": [],
      "name": "name",
      "outputs": [
        {
          "internalType": "string",
          "name": "",
          "type": "string"
        }
      ],
      "stateMutability": "view",
      "type": "function"
    },
    {
      "inputs": [
        {
          "internalType": "uint256",
          "name": "tokenId",
          "type": "uint256"
        }
      ],
      "name": "ownerOf",
      "outputs": [
        {
          "internalType": "address",
          "name": "",
          "type": "address"
        }
      ],
      "stateMutability": "view",
      "type": "function"
    },
    {
      "inputs": [
        {
          "internalType": "uint256",
          "name": "tokenId",
          "type": "uint256"
        }
      ],
      "name": "pickRandomFirstWord",
      "outputs": [
        {
          "internalType": "string",
          "name": "",
          "type": "string"
        }
      ],
      "stateMutability": "view",
      "type": "function"
    },
    {
      "inputs": [
        {
          "internalType": "uint256",
          "name": "tokenId",
          "type": "uint256"
        }
      ],
      "name": "pickRandomSecondWord",
      "outputs": [
        {
          "internalType": "string",
          "name": "",
          "type": "string"
        }
      ],
      "stateMutability": "view",
      "type": "function"
    },
    {
      "inputs": [
        {
          "internalType": "uint256",
          "name": "tokenId",
          "type": "uint256"
        }
      ],
      "name": "pickRandomThirdWord",
      "outputs": [
        {
          "internalType": "string",
          "name": "",
          "type": "string"
        }
      ],
      "stateMutability": "view",
      "type": "function"
    },
    {
      "inputs": [
        {
          "internalType": "address",
          "name": "from",
          "type": "address"
        },
        {
          "internalType": "address",
          "name": "to",
          "type": "address"
        },
        {
          "internalType": "uint256",
          "name": "tokenId",
          "type": "uint256"
        }
      ],
      "name": "safeTransferFrom",
      "outputs": [],
      "stateMutability": "nonpayable",
      "type": "function"
    },
    {
      "inputs": [
        {
          "internalType": "address",
          "name": "from",
          "type": "address"
        },
        {
          "internalType": "address",
          "name": "to",
          "type": "address"
        },
        {
          "internalType": "uint256",
          "name": "tokenId",
          "type": "uint256"
        },
        {
          "internalType": "bytes",
          "name": "data",
          "type": "bytes"
        }
      ],
      "name": "safeTransferFrom",
      "outputs": [],
      "stateMutability": "nonpayable",
      "type": "function"
    },
    {
      "inputs": [
        {
          "internalType": "address",
          "name": "operator",
          "type": "address"
        },
        {
          "internalType": "bool",
          "name": "approved",
          "type": "bool"
        }
      ],
      "name": "setApprovalForAll",
      "outputs": [],
      "stateMutability": "nonpayable",
      "type": "function"
    },
    {
      "inputs": [
        {
          "internalType": "bytes4",
          "name": "interfaceId",
          "type": "bytes4"
        }
      ],
      "name": "supportsInterface",
      "outputs": [
        {
          "internalType": "bool",
          "name": "",
          "type": "bool"
        }
      ],
      "stateMutability": "view",
      "type": "function"
    },
    {
      "inputs": [],
      "name": "symbol",
      "outputs": [
        {
          "internalType": "string",
          "name": "",
          "type": "string"
        }
      ],
      "stateMutability": "view",
      "type": "function"
    },
    {
      "inputs": [
        {
          "internalType": "uint256",
          "name": "tokenId",
          "type": "uint256"
        }
      ],
      "name": "tokenURI",
      "outputs": [
        {
          "internalType": "string",
          "name": "",
          "type": "string"
        }
      ],
      "stateMutability": "view",
      "type": "function"
    },
    {
      "inputs": [
        {
          "internalType": "address",
          "name": "from",
          "type": "address"
        },
        {
          "internalType": "address",
          "name": "to",
          "type": "address"
        },
        {
          "internalType": "uint256",
          "name": "tokenId",
          "type": "uint256"
        }
      ],
      "name": "transferFrom",
      "outputs": [],
      "stateMutability": "nonpayable",
      "type": "function"
    }
  ],
  "bytecode": "0x608060405260405180610160016040528061012e81526020016200426761012e913960089080519060200190620000389291906200067e565b506040518060c001604052806040518060400160405280600581526020017f576869746500000000000000000000000000000000000000000000000000000081525081526020016040518060400160405280600581526020017f426c61636b00000000000000000000000000000000000000000000000000000081525081526020016040518060400160405280600381526020017f526564000000000000000000000000000000000000000000000000000000000081525081526020016040518060400160405280600481526020017f426c75650000000000000000000000000000000000000000000000000000000081525081526020016040518060400160405280600581526020017f477265656e00000000000000000000000000000000000000000000000000000081525081526020016040518060400160405280600681526020017f59656c6c6f7700000000000000000000000000000000000000000000000000008152508152506009906006620001b69291906200070f565b506040518060c001604052806040518060400160405280600381526020017f426967000000000000000000000000000000000000000000000000000000000081525081526020016040518060400160405280600581526020017f536d616c6c00000000000000000000000000000000000000000000000000000081525081526020016040518060400160405280600381526020017f4e6577000000000000000000000000000000000000000000000000000000000081525081526020016040518060400160405280600381526020017f4f6c64000000000000000000000000000000000000000000000000000000000081525081526020016040518060400160405280600481526020017f466173740000000000000000000000000000000000000000000000000000000081525081526020016040518060400160405280600581526020017f536d616c6c000000000000000000000000000000000000000000000000000000815250815250600a906006620003349291906200070f565b506040518060c001604052806040518060400160405280600381526020017f436172000000000000000000000000000000000000000000000000000000000081525081526020016040518060400160405280600581526020017f547261696e00000000000000000000000000000000000000000000000000000081525081526020016040518060400160405280600881526020017f416972706c616e6500000000000000000000000000000000000000000000000081525081526020016040518060400160405280600481526020017f536869700000000000000000000000000000000000000000000000000000000081525081526020016040518060400160405280600681526020017f526f636b6574000000000000000000000000000000000000000000000000000081525081526020016040518060400160405280600781526020017f42696379636c6500000000000000000000000000000000000000000000000000815250815250600b906006620004b29291906200070f565b50348015620004c057600080fd5b506040518060400160405280600981526020017f5371756172654e465400000000000000000000000000000000000000000000008152506040518060400160405280600681526020017f53515541524500000000000000000000000000000000000000000000000000008152508160009080519060200190620005459291906200067e565b5080600190805190602001906200055e9291906200067e565b505050620005ac6040518060400160405280601881526020017f54686973206973206d79204e465420636f6e74726163742e0000000000000000815250620005b260201b620011611760201c565b62000930565b6200065281604051602401620005c99190620008a7565b6040516020818303038152906040527f41304fac000000000000000000000000000000000000000000000000000000007bffffffffffffffffffffffffffffffffffffffffffffffffffffffff19166020820180517bffffffffffffffffffffffffffffffffffffffffffffffffffffffff83818316178352505050506200065560201b60201c565b50565b60008151905060006a636f6e736f6c652e6c6f679050602083016000808483855afa5050505050565b8280546200068c90620008fa565b90600052602060002090601f016020900481019282620006b05760008555620006fc565b82601f10620006cb57805160ff1916838001178555620006fc565b82800160010185558215620006fc579182015b82811115620006fb578251825591602001919060010190620006de565b5b5090506200070b919062000776565b5090565b82805482825590600052602060002090810192821562000763579160200282015b8281111562000762578251829080519060200190620007519291906200067e565b509160200191906001019062000730565b5b50905062000772919062000795565b5090565b5b808211156200079157600081600090555060010162000777565b5090565b5b80821115620007b95760008181620007af9190620007bd565b5060010162000796565b5090565b508054620007cb90620008fa565b6000825580601f10620007df575062000800565b601f016020900490600052602060002090810190620007ff919062000776565b5b50565b600081519050919050565b600082825260208201905092915050565b60005b838110156200083f57808201518184015260208101905062000822565b838111156200084f576000848401525b50505050565b6000601f19601f8301169050919050565b6000620008738262000803565b6200087f81856200080e565b9350620008918185602086016200081f565b6200089c8162000855565b840191505092915050565b60006020820190508181036000830152620008c3818462000866565b905092915050565b7f4e487b7100000000000000000000000000000000000000000000000000000000600052602260045260246000fd5b600060028204905060018216806200091357607f821691505b602082108114156200092a5762000929620008cb565b5b50919050565b61392780620009406000396000f3fe608060405234801561001057600080fd5b50600436106101165760003560e01c806370a08231116100a2578063b88d4fde11610071578063b88d4fde14610305578063c575757a14610321578063c87b56dd14610351578063de9d132f14610381578063e985e9c51461038b57610116565b806370a082311461026b57806395d89b411461029b578063a22cb465146102b9578063b187301f146102d557610116565b8063095ea7b3116100e9578063095ea7b3146101b757806323b872dd146101d35780632de38d68146101ef57806342842e0e1461021f5780636352211e1461023b57610116565b806301ffc9a71461011b5780630375d3f01461014b57806306fdde0314610169578063081812fc14610187575b600080fd5b6101356004803603810190610130919061236e565b6103bb565b60405161014291906123b6565b60405180910390f35b61015361049d565b60405161016091906123ea565b60405180910390f35b6101716104b3565b60405161017e919061249e565b60405180910390f35b6101a1600480360381019061019c91906124ec565b610545565b6040516101ae919061255a565b60405180910390f35b6101d160048036038101906101cc91906125a1565b61058b565b005b6101ed60048036038101906101e891906125e1565b6106a3565b005b610209600480360381019061020491906124ec565b610703565b604051610216919061249e565b60405180910390f35b610239600480360381019061023491906125e1565b610879565b005b610255600480360381019061025091906124ec565b610899565b604051610262919061255a565b60405180910390f35b61028560048036038101906102809190612634565b61094b565b60405161029291906123ea565b60405180910390f35b6102a3610a03565b6040516102b0919061249e565b60405180910390f35b6102d360048036038101906102ce919061268d565b610a95565b005b6102ef60048036038101906102ea91906124ec565b610aab565b6040516102fc919061249e565b60405180910390f35b61031f600480360381019061031a9190612802565b610ba3565b005b61033b600480360381019061033691906124ec565b610c05565b604051610348919061249e565b60405180910390f35b61036b600480360381019061036691906124ec565b610cfd565b604051610378919061249e565b60405180910390f35b610389610e10565b005b6103a560048036038101906103a09190612885565b6110cd565b6040516103b291906123b6565b60405180910390f35b60007f80ac58cd000000000000000000000000000000000000000000000000000000007bffffffffffffffffffffffffffffffffffffffffffffffffffffffff1916827bffffffffffffffffffffffffffffffffffffffffffffffffffffffff1916148061048657507f5b5e139f000000000000000000000000000000000000000000000000000000007bffffffffffffffffffffffffffffffffffffffffffffffffffffffff1916827bffffffffffffffffffffffffffffffffffffffffffffffffffffffff1916145b806104965750610495826111fa565b5b9050919050565b6000806104aa6007611264565b90508091505090565b6060600080546104c2906128f4565b80601f01602080910402602001604051908101604052809291908181526020018280546104ee906128f4565b801561053b5780601f106105105761010080835404028352916020019161053b565b820191906000526020600020905b81548152906001019060200180831161051e57829003601f168201915b5050505050905090565b600061055082611272565b6004600083815260200190815260200160002060009054906101000a900473ffffffffffffffffffffffffffffffffffffffff169050919050565b600061059682610899565b90508073ffffffffffffffffffffffffffffffffffffffff168373ffffffffffffffffffffffffffffffffffffffff161415610607576040517f08c379a00000000000000000000000000000000000000000000000000000000081526004016105fe90612998565b60405180910390fd5b8073ffffffffffffffffffffffffffffffffffffffff166106266112bd565b73ffffffffffffffffffffffffffffffffffffffff16148061065557506106548161064f6112bd565b6110cd565b5b610694576040517f08c379a000000000000000000000000000000000000000000000000000000000815260040161068b90612a2a565b60405180910390fd5b61069e83836112c5565b505050565b6106b46106ae6112bd565b8261137e565b6106f3576040517f08c379a00000000000000000000000000000000000000000000000000000000081526004016106ea90612abc565b60405180910390fd5b6106fe838383611413565b505050565b606060006107376107138461167a565b6040516020016107239190612b64565b6040516020818303038152906040526117db565b90506107786040518060400160405280600d81526020017f72616e64202d20736565643a20000000000000000000000000000000000000008152508261180e565b600980549050816107899190612bb5565b90506107ca6040518060400160405280601381526020017f72616e64202d20666972737420776f72643a20000000000000000000000000008152508261180e565b600981815481106107de576107dd612be6565b5b9060005260206000200180546107f3906128f4565b80601f016020809104026020016040519081016040528092919081815260200182805461081f906128f4565b801561086c5780601f106108415761010080835404028352916020019161086c565b820191906000526020600020905b81548152906001019060200180831161084f57829003601f168201915b5050505050915050919050565b61089483838360405180602001604052806000815250610ba3565b505050565b6000806002600084815260200190815260200160002060009054906101000a900473ffffffffffffffffffffffffffffffffffffffff169050600073ffffffffffffffffffffffffffffffffffffffff168173ffffffffffffffffffffffffffffffffffffffff161415610942576040517f08c379a000000000000000000000000000000000000000000000000000000000815260040161093990612c61565b60405180910390fd5b80915050919050565b60008073ffffffffffffffffffffffffffffffffffffffff168273ffffffffffffffffffffffffffffffffffffffff1614156109bc576040517f08c379a00000000000000000000000000000000000000000000000000000000081526004016109b390612cf3565b60405180910390fd5b600360008373ffffffffffffffffffffffffffffffffffffffff1673ffffffffffffffffffffffffffffffffffffffff168152602001908152602001600020549050919050565b606060018054610a12906128f4565b80601f0160208091040260200160405190810160405280929190818152602001828054610a3e906128f4565b8015610a8b5780601f10610a6057610100808354040283529160200191610a8b565b820191906000526020600020905b815481529060010190602001808311610a6e57829003601f168201915b5050505050905090565b610aa7610aa06112bd565b83836118aa565b5050565b60606000610adf610abb8461167a565b604051602001610acb9190612d5f565b6040516020818303038152906040526117db565b9050600a8054905081610af29190612bb5565b9050600a8181548110610b0857610b07612be6565b5b906000526020600020018054610b1d906128f4565b80601f0160208091040260200160405190810160405280929190818152602001828054610b49906128f4565b8015610b965780601f10610b6b57610100808354040283529160200191610b96565b820191906000526020600020905b815481529060010190602001808311610b7957829003601f168201915b5050505050915050919050565b610bb4610bae6112bd565b8361137e565b610bf3576040517f08c379a0000000000000000000000000000000000000000000000000000000008152600401610bea90612abc565b60405180910390fd5b610bff84848484611a17565b50505050565b60606000610c39610c158461167a565b604051602001610c259190612dcd565b6040516020818303038152906040526117db565b9050600b8054905081610c4c9190612bb5565b9050600b8181548110610c6257610c61612be6565b5b906000526020600020018054610c77906128f4565b80601f0160208091040260200160405190810160405280929190818152602001828054610ca3906128f4565b8015610cf05780601f10610cc557610100808354040283529160200191610cf0565b820191906000526020600020905b815481529060010190602001808311610cd357829003601f168201915b5050505050915050919050565b6060610d0882611272565b6000600660008481526020019081526020016000208054610d28906128f4565b80601f0160208091040260200160405190810160405280929190818152602001828054610d54906128f4565b8015610da15780601f10610d7657610100808354040283529160200191610da1565b820191906000526020600020905b815481529060010190602001808311610d8457829003601f168201915b505050505090506000610db2611a73565b9050600081511415610dc8578192505050610e0b565b600082511115610dfd578082604051602001610de5929190612def565b60405160208183030381529060405292505050610e0b565b610e0684611a8a565b925050505b919050565b6032610e1c6007611264565b1115610e5d576040517f08c379a0000000000000000000000000000000000000000000000000000000008152600401610e5490612e5f565b60405180910390fd5b6000610e696007611264565b90506000610e7682610703565b90506000610e8383610aab565b90506000610e9084610c05565b90506000838383604051602001610ea993929190612e7f565b604051602081830303815290604052905060006008858585604051602001610ed49493929190612f90565b6040516020818303038152906040529050610f236040518060400160405280601581526020017f0a2d2d2d2d2d205356472064617461202d2d2d2d2d0000000000000000000000815250611161565b610f2c81611161565b610f6a6040518060400160405280601581526020017f2d2d2d2d2d2d2d2d2d2d2d2d2d2d2d2d2d2d2d2d0a0000000000000000000000815250611161565b6000610f9e83610f7984611af2565b604051602001610f8a92919061312f565b604051602081830303815290604052611af2565b9050600081604051602001610fb391906131c0565b60405160208183030381529060405290506110026040518060400160405280601581526020017f0a2d2d2d2d2d20546f6b656e20555249202d2d2d2d0000000000000000000000815250611161565b61100b81611161565b6110496040518060400160405280601581526020017f2d2d2d2d2d2d2d2d2d2d2d2d2d2d2d2d2d2d2d2d0a0000000000000000000000815250611161565b6110533389611c8a565b61105d8882611ca8565b61108060405180606001604052806025815260200161388d602591398933611d1c565b61108a6007611dbb565b7febb98688741ffa4c7589bf325de30cf7becb63de567842e1ccdb6cb949fdc82c33896040516110bb9291906131e2565b60405180910390a15050505050505050565b6000600560008473ffffffffffffffffffffffffffffffffffffffff1673ffffffffffffffffffffffffffffffffffffffff16815260200190815260200160002060008373ffffffffffffffffffffffffffffffffffffffff1673ffffffffffffffffffffffffffffffffffffffff16815260200190815260200160002060009054906101000a900460ff16905092915050565b6111f781604051602401611175919061249e565b6040516020818303038152906040527f41304fac000000000000000000000000000000000000000000000000000000007bffffffffffffffffffffffffffffffffffffffffffffffffffffffff19166020820180517bffffffffffffffffffffffffffffffffffffffffffffffffffffffff8381831617835250505050611dd1565b50565b60007f01ffc9a7000000000000000000000000000000000000000000000000000000007bffffffffffffffffffffffffffffffffffffffffffffffffffffffff1916827bffffffffffffffffffffffffffffffffffffffffffffffffffffffff1916149050919050565b600081600001549050919050565b61127b81611dfa565b6112ba576040517f08c379a00000000000000000000000000000000000000000000000000000000081526004016112b190612c61565b60405180910390fd5b50565b600033905090565b816004600083815260200190815260200160002060006101000a81548173ffffffffffffffffffffffffffffffffffffffff021916908373ffffffffffffffffffffffffffffffffffffffff160217905550808273ffffffffffffffffffffffffffffffffffffffff1661133883610899565b73ffffffffffffffffffffffffffffffffffffffff167f8c5be1e5ebec7d5bd14f71427d1e84f3dd0314c0f7b2291e5b200ac8c7c3b92560405160405180910390a45050565b60008061138a83610899565b90508073ffffffffffffffffffffffffffffffffffffffff168473ffffffffffffffffffffffffffffffffffffffff1614806113cc57506113cb81856110cd565b5b8061140a57508373ffffffffffffffffffffffffffffffffffffffff166113f284610545565b73ffffffffffffffffffffffffffffffffffffffff16145b91505092915050565b8273ffffffffffffffffffffffffffffffffffffffff1661143382610899565b73ffffffffffffffffffffffffffffffffffffffff1614611489576040517f08c379a00000000000000000000000000000000000000000000000000000000081526004016114809061327d565b60405180910390fd5b600073ffffffffffffffffffffffffffffffffffffffff168273ffffffffffffffffffffffffffffffffffffffff1614156114f9576040517f08c379a00000000000000000000000000000000000000000000000000000000081526004016114f09061330f565b60405180910390fd5b611504838383611e66565b61150f6000826112c5565b6001600360008573ffffffffffffffffffffffffffffffffffffffff1673ffffffffffffffffffffffffffffffffffffffff168152602001908152602001600020600082825461155f919061335e565b925050819055506001600360008473ffffffffffffffffffffffffffffffffffffffff1673ffffffffffffffffffffffffffffffffffffffff16815260200190815260200160002060008282546115b69190613392565b92505081905550816002600083815260200190815260200160002060006101000a81548173ffffffffffffffffffffffffffffffffffffffff021916908373ffffffffffffffffffffffffffffffffffffffff160217905550808273ffffffffffffffffffffffffffffffffffffffff168473ffffffffffffffffffffffffffffffffffffffff167fddf252ad1be2c89b69c2b068fc378daa952ba7f163c4a11628f55a4df523b3ef60405160405180910390a4611675838383611e6b565b505050565b606060008214156116c2576040518060400160405280600181526020017f300000000000000000000000000000000000000000000000000000000000000081525090506117d6565b600082905060005b600082146116f45780806116dd906133e8565b915050600a826116ed9190613431565b91506116ca565b60008167ffffffffffffffff8111156117105761170f6126d7565b5b6040519080825280601f01601f1916602001820160405280156117425781602001600182028036833780820191505090505b5090505b600085146117cf5760018261175b919061335e565b9150600a8561176a9190612bb5565b60306117769190613392565b60f81b81838151811061178c5761178b612be6565b5b60200101907effffffffffffffffffffffffffffffffffffffffffffffffffffffffffffff1916908160001a905350600a856117c89190613431565b9450611746565b8093505050505b919050565b6000816040516020016117ee9190613462565b6040516020818303038152906040528051906020012060001c9050919050565b6118a68282604051602401611824929190613479565b6040516020818303038152906040527fb60e72cc000000000000000000000000000000000000000000000000000000007bffffffffffffffffffffffffffffffffffffffffffffffffffffffff19166020820180517bffffffffffffffffffffffffffffffffffffffffffffffffffffffff8381831617835250505050611dd1565b5050565b8173ffffffffffffffffffffffffffffffffffffffff168373ffffffffffffffffffffffffffffffffffffffff161415611919576040517f08c379a0000000000000000000000000000000000000000000000000000000008152600401611910906134f5565b60405180910390fd5b80600560008573ffffffffffffffffffffffffffffffffffffffff1673ffffffffffffffffffffffffffffffffffffffff16815260200190815260200160002060008473ffffffffffffffffffffffffffffffffffffffff1673ffffffffffffffffffffffffffffffffffffffff16815260200190815260200160002060006101000a81548160ff0219169083151502179055508173ffffffffffffffffffffffffffffffffffffffff168373ffffffffffffffffffffffffffffffffffffffff167f17307eab39ab6107e8899845ad3d59bd9653f200f220920489ca2b5937696c3183604051611a0a91906123b6565b60405180910390a3505050565b611a22848484611413565b611a2e84848484611e70565b611a6d576040517f08c379a0000000000000000000000000000000000000000000000000000000008152600401611a6490613587565b60405180910390fd5b50505050565b606060405180602001604052806000815250905090565b6060611a9582611272565b6000611a9f611a73565b90506000815111611abf5760405180602001604052806000815250611aea565b80611ac98461167a565b604051602001611ada929190612def565b6040516020818303038152906040525b915050919050565b60606000825190506000811415611b1b5760405180602001604052806000815250915050611c85565b60006003600283611b2c9190613392565b611b369190613431565b6004611b4291906135a7565b90506000602082611b539190613392565b67ffffffffffffffff811115611b6c57611b6b6126d7565b5b6040519080825280601f01601f191660200182016040528015611b9e5781602001600182028036833780820191505090505b50905060006040518060600160405280604081526020016138b2604091399050600181016020830160005b86811015611c425760038101905062ffffff818a015116603f8160121c168401518060081b905060ff603f83600c1c1686015116810190508060081b905060ff603f8360061c1686015116810190508060081b905060ff603f831686015116810190508060e01b90508084526004840193505050611bc9565b506003860660018114611c5c5760028114611c6c57611c77565b613d3d60f01b6002830352611c77565b603d60f81b60018303525b508484525050819450505050505b919050565b611ca4828260405180602001604052806000815250612007565b5050565b611cb182611dfa565b611cf0576040517f08c379a0000000000000000000000000000000000000000000000000000000008152600401611ce790613673565b60405180910390fd5b80600660008481526020019081526020016000209080519060200190611d1792919061225f565b505050565b611db6838383604051602401611d3493929190613693565b6040516020818303038152906040527f1c7ec448000000000000000000000000000000000000000000000000000000007bffffffffffffffffffffffffffffffffffffffffffffffffffffffff19166020820180517bffffffffffffffffffffffffffffffffffffffffffffffffffffffff8381831617835250505050611dd1565b505050565b6001816000016000828254019250508190555050565b60008151905060006a636f6e736f6c652e6c6f679050602083016000808483855afa5050505050565b60008073ffffffffffffffffffffffffffffffffffffffff166002600084815260200190815260200160002060009054906101000a900473ffffffffffffffffffffffffffffffffffffffff1673ffffffffffffffffffffffffffffffffffffffff1614159050919050565b505050565b505050565b6000611e918473ffffffffffffffffffffffffffffffffffffffff16612062565b15611ffa578373ffffffffffffffffffffffffffffffffffffffff1663150b7a02611eba6112bd565b8786866040518563ffffffff1660e01b8152600401611edc9493929190613726565b602060405180830381600087803b158015611ef657600080fd5b505af1925050508015611f2757506040513d601f19601f82011682018060405250810190611f249190613787565b60015b611faa573d8060008114611f57576040519150601f19603f3d011682016040523d82523d6000602084013e611f5c565b606091505b50600081511415611fa2576040517f08c379a0000000000000000000000000000000000000000000000000000000008152600401611f9990613587565b60405180910390fd5b805181602001fd5b63150b7a0260e01b7bffffffffffffffffffffffffffffffffffffffffffffffffffffffff1916817bffffffffffffffffffffffffffffffffffffffffffffffffffffffff191614915050611fff565b600190505b949350505050565b6120118383612085565b61201e6000848484611e70565b61205d576040517f08c379a000000000000000000000000000000000000000000000000000000000815260040161205490613587565b60405180910390fd5b505050565b6000808273ffffffffffffffffffffffffffffffffffffffff163b119050919050565b600073ffffffffffffffffffffffffffffffffffffffff168273ffffffffffffffffffffffffffffffffffffffff1614156120f5576040517f08c379a00000000000000000000000000000000000000000000000000000000081526004016120ec90613800565b60405180910390fd5b6120fe81611dfa565b1561213e576040517f08c379a00000000000000000000000000000000000000000000000000000000081526004016121359061386c565b60405180910390fd5b61214a60008383611e66565b6001600360008473ffffffffffffffffffffffffffffffffffffffff1673ffffffffffffffffffffffffffffffffffffffff168152602001908152602001600020600082825461219a9190613392565b92505081905550816002600083815260200190815260200160002060006101000a81548173ffffffffffffffffffffffffffffffffffffffff021916908373ffffffffffffffffffffffffffffffffffffffff160217905550808273ffffffffffffffffffffffffffffffffffffffff16600073ffffffffffffffffffffffffffffffffffffffff167fddf252ad1be2c89b69c2b068fc378daa952ba7f163c4a11628f55a4df523b3ef60405160405180910390a461225b60008383611e6b565b5050565b82805461226b906128f4565b90600052602060002090601f01602090048101928261228d57600085556122d4565b82601f106122a657805160ff19168380011785556122d4565b828001600101855582156122d4579182015b828111156122d35782518255916020019190600101906122b8565b5b5090506122e191906122e5565b5090565b5b808211156122fe5760008160009055506001016122e6565b5090565b6000604051905090565b600080fd5b600080fd5b60007fffffffff0000000000000000000000000000000000000000000000000000000082169050919050565b61234b81612316565b811461235657600080fd5b50565b60008135905061236881612342565b92915050565b6000602082840312156123845761238361230c565b5b600061239284828501612359565b91505092915050565b60008115159050919050565b6123b08161239b565b82525050565b60006020820190506123cb60008301846123a7565b92915050565b6000819050919050565b6123e4816123d1565b82525050565b60006020820190506123ff60008301846123db565b92915050565b600081519050919050565b600082825260208201905092915050565b60005b8381101561243f578082015181840152602081019050612424565b8381111561244e576000848401525b50505050565b6000601f19601f8301169050919050565b600061247082612405565b61247a8185612410565b935061248a818560208601612421565b61249381612454565b840191505092915050565b600060208201905081810360008301526124b88184612465565b905092915050565b6124c9816123d1565b81146124d457600080fd5b50565b6000813590506124e6816124c0565b92915050565b6000602082840312156125025761250161230c565b5b6000612510848285016124d7565b91505092915050565b600073ffffffffffffffffffffffffffffffffffffffff82169050919050565b600061254482612519565b9050919050565b61255481612539565b82525050565b600060208201905061256f600083018461254b565b92915050565b61257e81612539565b811461258957600080fd5b50565b60008135905061259b81612575565b92915050565b600080604083850312156125b8576125b761230c565b5b60006125c68582860161258c565b92505060206125d7858286016124d7565b9150509250929050565b6000806000606084860312156125fa576125f961230c565b5b60006126088682870161258c565b93505060206126198682870161258c565b925050604061262a868287016124d7565b9150509250925092565b60006020828403121561264a5761264961230c565b5b60006126588482850161258c565b91505092915050565b61266a8161239b565b811461267557600080fd5b50565b60008135905061268781612661565b92915050565b600080604083850312156126a4576126a361230c565b5b60006126b28582860161258c565b92505060206126c385828601612678565b9150509250929050565b600080fd5b600080fd5b7f4e487b7100000000000000000000000000000000000000000000000000000000600052604160045260246000fd5b61270f82612454565b810181811067ffffffffffffffff8211171561272e5761272d6126d7565b5b80604052505050565b6000612741612302565b905061274d8282612706565b919050565b600067ffffffffffffffff82111561276d5761276c6126d7565b5b61277682612454565b9050602081019050919050565b82818337600083830152505050565b60006127a56127a084612752565b612737565b9050828152602081018484840111156127c1576127c06126d2565b5b6127cc848285612783565b509392505050565b600082601f8301126127e9576127e86126cd565b5b81356127f9848260208601612792565b91505092915050565b6000806000806080858703121561281c5761281b61230c565b5b600061282a8782880161258c565b945050602061283b8782880161258c565b935050604061284c878288016124d7565b925050606085013567ffffffffffffffff81111561286d5761286c612311565b5b612879878288016127d4565b91505092959194509250565b6000806040838503121561289c5761289b61230c565b5b60006128aa8582860161258c565b92505060206128bb8582860161258c565b9150509250929050565b7f4e487b7100000000000000000000000000000000000000000000000000000000600052602260045260246000fd5b6000600282049050600182168061290c57607f821691505b602082108114156129205761291f6128c5565b5b50919050565b7f4552433732313a20617070726f76616c20746f2063757272656e74206f776e6560008201527f7200000000000000000000000000000000000000000000000000000000000000602082015250565b6000612982602183612410565b915061298d82612926565b604082019050919050565b600060208201905081810360008301526129b181612975565b9050919050565b7f4552433732313a20617070726f76652063616c6c6572206973206e6f7420746f60008201527f6b656e206f776e6572206e6f7220617070726f76656420666f7220616c6c0000602082015250565b6000612a14603e83612410565b9150612a1f826129b8565b604082019050919050565b60006020820190508181036000830152612a4381612a07565b9050919050565b7f4552433732313a2063616c6c6572206973206e6f7420746f6b656e206f776e6560008201527f72206e6f7220617070726f766564000000000000000000000000000000000000602082015250565b6000612aa6602e83612410565b9150612ab182612a4a565b604082019050919050565b60006020820190508181036000830152612ad581612a99565b9050919050565b600081905092915050565b7f46495253545f574f524400000000000000000000000000000000000000000000600082015250565b6000612b1d600a83612adc565b9150612b2882612ae7565b600a82019050919050565b6000612b3e82612405565b612b488185612adc565b9350612b58818560208601612421565b80840191505092915050565b6000612b6f82612b10565b9150612b7b8284612b33565b915081905092915050565b7f4e487b7100000000000000000000000000000000000000000000000000000000600052601260045260246000fd5b6000612bc0826123d1565b9150612bcb836123d1565b925082612bdb57612bda612b86565b5b828206905092915050565b7f4e487b7100000000000000000000000000000000000000000000000000000000600052603260045260246000fd5b7f4552433732313a20696e76616c696420746f6b656e2049440000000000000000600082015250565b6000612c4b601883612410565b9150612c5682612c15565b602082019050919050565b60006020820190508181036000830152612c7a81612c3e565b9050919050565b7f4552433732313a2061646472657373207a65726f206973206e6f74206120766160008201527f6c6964206f776e65720000000000000000000000000000000000000000000000602082015250565b6000612cdd602983612410565b9150612ce882612c81565b604082019050919050565b60006020820190508181036000830152612d0c81612cd0565b9050919050565b7f5345434f4e445f574f5244000000000000000000000000000000000000000000600082015250565b6000612d49600b83612adc565b9150612d5482612d13565b600b82019050919050565b6000612d6a82612d3c565b9150612d768284612b33565b915081905092915050565b7f54484952445f574f524400000000000000000000000000000000000000000000600082015250565b6000612db7600a83612adc565b9150612dc282612d81565b600a82019050919050565b6000612dd882612daa565b9150612de48284612b33565b915081905092915050565b6000612dfb8285612b33565b9150612e078284612b33565b91508190509392505050565b7f4e6f206d6f7265204e46542063616e206265206973737565642e000000000000600082015250565b6000612e49601a83612410565b9150612e5482612e13565b602082019050919050565b60006020820190508181036000830152612e7881612e3c565b9050919050565b6000612e8b8286612b33565b9150612e978285612b33565b9150612ea38284612b33565b9150819050949350505050565b60008190508160005260206000209050919050565b60008154612ed2816128f4565b612edc8186612adc565b94506001821660008114612ef75760018114612f0857612f3b565b60ff19831686528186019350612f3b565b612f1185612eb0565b60005b83811015612f3357815481890152600182019150602081019050612f14565b838801955050505b50505092915050565b7f3c2f746578743e3c2f7376673e00000000000000000000000000000000000000600082015250565b6000612f7a600d83612adc565b9150612f8582612f44565b600d82019050919050565b6000612f9c8287612ec5565b9150612fa88286612b33565b9150612fb48285612b33565b9150612fc08284612b33565b9150612fcb82612f6d565b915081905095945050505050565b7f7b226e616d65223a202200000000000000000000000000000000000000000000600082015250565b600061300f600a83612adc565b915061301a82612fd9565b600a82019050919050565b7f222c20226465736372697074696f6e223a20224120686967686c79206163636c60008201527f61696d656420636f6c6c656374696f6e206f6620737175617265732e222c202260208201527f696d616765223a2022646174613a696d6167652f7376672b786d6c3b6261736560408201527f36342c0000000000000000000000000000000000000000000000000000000000606082015250565b60006130cd606383612adc565b91506130d882613025565b606382019050919050565b7f227d000000000000000000000000000000000000000000000000000000000000600082015250565b6000613119600283612adc565b9150613124826130e3565b600282019050919050565b600061313a82613002565b91506131468285612b33565b9150613151826130c0565b915061315d8284612b33565b91506131688261310c565b91508190509392505050565b7f646174613a6170706c69636174696f6e2f6a736f6e3b6261736536342c000000600082015250565b60006131aa601d83612adc565b91506131b582613174565b601d82019050919050565b60006131cb8261319d565b91506131d78284612b33565b915081905092915050565b60006040820190506131f7600083018561254b565b61320460208301846123db565b9392505050565b7f4552433732313a207472616e736665722066726f6d20696e636f72726563742060008201527f6f776e6572000000000000000000000000000000000000000000000000000000602082015250565b6000613267602583612410565b91506132728261320b565b604082019050919050565b600060208201905081810360008301526132968161325a565b9050919050565b7f4552433732313a207472616e7366657220746f20746865207a65726f2061646460008201527f7265737300000000000000000000000000000000000000000000000000000000602082015250565b60006132f9602483612410565b91506133048261329d565b604082019050919050565b60006020820190508181036000830152613328816132ec565b9050919050565b7f4e487b7100000000000000000000000000000000000000000000000000000000600052601160045260246000fd5b6000613369826123d1565b9150613374836123d1565b9250828210156133875761338661332f565b5b828203905092915050565b600061339d826123d1565b91506133a8836123d1565b9250827fffffffffffffffffffffffffffffffffffffffffffffffffffffffffffffffff038211156133dd576133dc61332f565b5b828201905092915050565b60006133f3826123d1565b91507fffffffffffffffffffffffffffffffffffffffffffffffffffffffffffffffff8214156134265761342561332f565b5b600182019050919050565b600061343c826123d1565b9150613447836123d1565b92508261345757613456612b86565b5b828204905092915050565b600061346e8284612b33565b915081905092915050565b600060408201905081810360008301526134938185612465565b90506134a260208301846123db565b9392505050565b7f4552433732313a20617070726f766520746f2063616c6c657200000000000000600082015250565b60006134df601983612410565b91506134ea826134a9565b602082019050919050565b6000602082019050818103600083015261350e816134d2565b9050919050565b7f4552433732313a207472616e7366657220746f206e6f6e20455243373231526560008201527f63656976657220696d706c656d656e7465720000000000000000000000000000602082015250565b6000613571603283612410565b915061357c82613515565b604082019050919050565b600060208201905081810360008301526135a081613564565b9050919050565b60006135b2826123d1565b91506135bd836123d1565b9250817fffffffffffffffffffffffffffffffffffffffffffffffffffffffffffffffff04831182151516156135f6576135f561332f565b5b828202905092915050565b7f45524337323155524953746f726167653a2055524920736574206f66206e6f6e60008201527f6578697374656e7420746f6b656e000000000000000000000000000000000000602082015250565b600061365d602e83612410565b915061366882613601565b604082019050919050565b6000602082019050818103600083015261368c81613650565b9050919050565b600060608201905081810360008301526136ad8186612465565b90506136bc60208301856123db565b6136c9604083018461254b565b949350505050565b600081519050919050565b600082825260208201905092915050565b60006136f8826136d1565b61370281856136dc565b9350613712818560208601612421565b61371b81612454565b840191505092915050565b600060808201905061373b600083018761254b565b613748602083018661254b565b61375560408301856123db565b818103606083015261376781846136ed565b905095945050505050565b60008151905061378181612342565b92915050565b60006020828403121561379d5761379c61230c565b5b60006137ab84828501613772565b91505092915050565b7f4552433732313a206d696e7420746f20746865207a65726f2061646472657373600082015250565b60006137ea602083612410565b91506137f5826137b4565b602082019050919050565b60006020820190508181036000830152613819816137dd565b9050919050565b7f4552433732313a20746f6b656e20616c7265616479206d696e74656400000000600082015250565b6000613856601c83612410565b915061386182613820565b602082019050919050565b6000602082019050818103600083015261388581613849565b905091905056fe416e204e465420772f20494420257320686173206265656e206d696e74656420746f2025734142434445464748494a4b4c4d4e4f505152535455565758595a6162636465666768696a6b6c6d6e6f707172737475767778797a303132333435363738392b2fa264697066735822122015cd061ec5a45c679135ba3a12b06105102f22f3ac31b3aef46d784841f6c63664736f6c634300080900333c73766720786d6c6e733d27687474703a2f2f7777772e77332e6f72672f323030302f73766727207072657365727665417370656374526174696f3d27784d696e594d696e206d656574272076696577426f783d273020302033353020333530273e3c7374796c653e2e62617365207b2066696c6c3a2077686974653b20666f6e742d66616d696c793a2073657269663b20666f6e742d73697a653a20323470783b207d3c2f7374796c653e3c726563742077696474683d273130302527206865696768743d2731303025272066696c6c3d27626c756527202f3e3c7465787420783d273530252720793d273530252720636c6173733d27626173652720646f6d696e616e742d626173656c696e653d276d6964646c652720746578742d616e63686f723d276d6964646c65273e",
  "linkReferences": {},
  "deployedLinkReferences": {}
}